{
  "contractName": "Krutilka",
  "abi": [
    {
      "constant": true,
      "inputs": [],
      "name": "owner",
      "outputs": [
        {
          "name": "",
          "type": "address"
        }
      ],
      "payable": false,
      "stateMutability": "view",
      "type": "function"
    },
    {
      "constant": true,
      "inputs": [],
      "name": "stage_",
      "outputs": [
        {
          "name": "",
          "type": "uint8"
        }
      ],
      "payable": false,
      "stateMutability": "view",
      "type": "function"
    },
    {
      "inputs": [
        {
          "name": "randomPermutationContractAddress",
          "type": "address"
        }
      ],
      "payable": false,
      "stateMutability": "nonpayable",
      "type": "constructor"
    },
    {
      "constant": false,
      "inputs": [
        {
          "name": "yourName",
          "type": "string"
        }
      ],
      "name": "Register",
      "outputs": [],
      "payable": false,
      "stateMutability": "nonpayable",
      "type": "function"
    },
    {
      "constant": true,
      "inputs": [],
      "name": "GetMyName",
      "outputs": [
        {
          "name": "",
          "type": "string"
        }
      ],
      "payable": false,
      "stateMutability": "view",
      "type": "function"
    },
    {
      "constant": true,
      "inputs": [],
      "name": "WhoToGift",
      "outputs": [
        {
          "name": "",
          "type": "string"
        }
      ],
      "payable": false,
      "stateMutability": "view",
      "type": "function"
    },
    {
      "constant": true,
      "inputs": [],
      "name": "GetCurrentStage",
      "outputs": [
        {
          "name": "",
          "type": "string"
        }
      ],
      "payable": false,
      "stateMutability": "view",
      "type": "function"
    },
    {
      "constant": true,
      "inputs": [],
      "name": "GetParticipantsCount",
      "outputs": [
        {
          "name": "",
          "type": "uint256"
        }
      ],
      "payable": false,
      "stateMutability": "view",
      "type": "function"
    },
    {
      "constant": false,
      "inputs": [],
      "name": "StartRegisterStage",
      "outputs": [],
      "payable": false,
      "stateMutability": "nonpayable",
      "type": "function"
    },
    {
      "constant": false,
      "inputs": [],
      "name": "StartKrutilka",
      "outputs": [],
      "payable": false,
      "stateMutability": "nonpayable",
      "type": "function"
    }
  ],
  "bytecode": "0x608060405234801561001057600080fd5b506040516020806111dc83398101806040528101908080519060200190929190505050336000806101000a81548173ffffffffffffffffffffffffffffffffffffffff021916908373ffffffffffffffffffffffffffffffffffffffff16021790555060008060146101000a81548160ff0219169083600181111561009157fe5b021790555080600360006101000a81548173ffffffffffffffffffffffffffffffffffffffff021916908373ffffffffffffffffffffffffffffffffffffffff160217905550506110f5806100e76000396000f300608060405260043610610099576000357c0100000000000000000000000000000000000000000000000000000000900463ffffffff16806313d349691461009e57806337a776b9146100b557806337a7cf34146100cc57806340b2d3af1461015c5780638606d025146101c55780638da5cb5b14610255578063a9b4d3c7146102ac578063b97d8b94146102e5578063cc9bca5e14610375575b600080fd5b3480156100aa57600080fd5b506100b36103a0565b005b3480156100c157600080fd5b506100ca610423565b005b3480156100d857600080fd5b506100e16104ea565b6040518080602001828103825283818151815260200191508051906020019080838360005b83811015610121578082015181840152602081019050610106565b50505050905090810190601f16801561014e5780820380516001836020036101000a031916815260200191505b509250505060405180910390f35b34801561016857600080fd5b506101c3600480360381019080803590602001908201803590602001908080601f016020809104026020016040519081016040528093929190818152602001838380828437820191505050505050919291929050505061077e565b005b3480156101d157600080fd5b506101da610870565b6040518080602001828103825283818151815260200191508051906020019080838360005b8381101561021a5780820151818401526020810190506101ff565b50505050905090810190601f1680156102475780820380516001836020036101000a031916815260200191505b509250505060405180910390f35b34801561026157600080fd5b5061026a610983565b604051808273ffffffffffffffffffffffffffffffffffffffff1673ffffffffffffffffffffffffffffffffffffffff16815260200191505060405180910390f35b3480156102b857600080fd5b506102c16109a8565b604051808260018111156102d157fe5b60ff16815260200191505060405180910390f35b3480156102f157600080fd5b506102fa6109bb565b6040518080602001828103825283818151815260200191508051906020019080838360005b8381101561033a57808201518184015260208101905061031f565b50505050905090810190601f1680156103675780820380516001836020036101000a031916815260200191505b509250505060405180910390f35b34801561038157600080fd5b5061038a610bec565b6040518082815260200191505060405180910390f35b6000809054906101000a900473ffffffffffffffffffffffffffffffffffffffff1673ffffffffffffffffffffffffffffffffffffffff163373ffffffffffffffffffffffffffffffffffffffff161415610421576103fd610bf9565b60008060146101000a81548160ff0219169083600181111561041b57fe5b02179055505b565b60008060149054906101000a900460ff16600181111561043f57fe5b81600181111561044b57fe5b14156104e7576000809054906101000a900473ffffffffffffffffffffffffffffffffffffffff1673ffffffffffffffffffffffffffffffffffffffff163373ffffffffffffffffffffffffffffffffffffffff1614156104e657600180805490501115156104b957600080fd5b6104c1610c17565b6001600060146101000a81548160ff021916908360018111156104e057fe5b02179055505b5b50565b60606000806001600060149054906101000a900460ff16600181111561050c57fe5b81600181111561051857fe5b14156107785760018054905060028054905014151561053657600080fd5b61068f6002805480602002602001604051908101604052809291908181526020016000905b8282101561068557838290600052602060002090600202016040805190810160405290816000820160009054906101000a900473ffffffffffffffffffffffffffffffffffffffff1673ffffffffffffffffffffffffffffffffffffffff1673ffffffffffffffffffffffffffffffffffffffff168152602001600182018054600181600116156101000203166002900480601f01602080910402602001604051908101604052809291908181526020018280546001816001161561010002031660029004801561066d5780601f106106425761010080835404028352916020019161066d565b820191906000526020600020905b81548152906001019060200180831161065057829003601f168201915b5050505050815250508152602001906001019061055b565b5050505033610e5a565b9250600280549050831015156106a457600080fd5b6001830191506002805490508214156106bc57600091505b6002828154811015156106cb57fe5b90600052602060002090600202016001018054600181600116156101000203166002900480601f0160208091040260200160405190810160405280929190818152602001828054600181600116156101000203166002900480156107705780601f1061074557610100808354040283529160200191610770565b820191906000526020600020905b81548152906001019060200180831161075357829003601f168201915b505050505093505b50505090565b60008060149054906101000a900460ff16600181111561079a57fe5b8160018111156107a657fe5b141561086c57600160408051908101604052803373ffffffffffffffffffffffffffffffffffffffff168152602001848152509080600181540180825580915050906001820390600052602060002090600202016000909192909190915060008201518160000160006101000a81548173ffffffffffffffffffffffffffffffffffffffff021916908373ffffffffffffffffffffffffffffffffffffffff1602179055506020820151816001019080519060200190610867929190610edb565b505050505b5050565b60606000600181111561087f57fe5b600060149054906101000a900460ff16600181111561089a57fe5b14156108dd576040805190810160405280600881526020017f52656769737465720000000000000000000000000000000000000000000000008152509050610980565b6001808111156108e957fe5b600060149054906101000a900460ff16600181111561090457fe5b1415610947576040805190810160405280600481526020017f47696674000000000000000000000000000000000000000000000000000000008152509050610980565b6040805190810160405280600581526020017f4572726f7200000000000000000000000000000000000000000000000000000081525090505b90565b6000809054906101000a900473ffffffffffffffffffffffffffffffffffffffff1681565b600060149054906101000a900460ff1681565b60606000610b186001805480602002602001604051908101604052809291908181526020016000905b82821015610b0e57838290600052602060002090600202016040805190810160405290816000820160009054906101000a900473ffffffffffffffffffffffffffffffffffffffff1673ffffffffffffffffffffffffffffffffffffffff1673ffffffffffffffffffffffffffffffffffffffff168152602001600182018054600181600116156101000203166002900480601f016020809104026020016040519081016040528092919081815260200182805460018160011615610100020316600290048015610af65780601f10610acb57610100808354040283529160200191610af6565b820191906000526020600020905b815481529060010190602001808311610ad957829003601f168201915b505050505081525050815260200190600101906109e4565b5050505033610e5a565b905060018054905081101515610b2d57600080fd5b600181815481101515610b3c57fe5b90600052602060002090600202016001018054600181600116156101000203166002900480601f016020809104026020016040519081016040528092919081815260200182805460018160011615610100020316600290048015610be15780601f10610bb657610100808354040283529160200191610be1565b820191906000526020600020905b815481529060010190602001808311610bc457829003601f168201915b505050505091505090565b6000600180549050905090565b60016000610c079190610f5b565b60026000610c159190610f5b565b565b60606000600360009054906101000a900473ffffffffffffffffffffffffffffffffffffffff1673ffffffffffffffffffffffffffffffffffffffff1663a20f58536001805490506040518263ffffffff167c010000000000000000000000000000000000000000000000000000000002815260040180828152602001915050600060405180830381600087803b158015610cb157600080fd5b505af1158015610cc5573d6000803e3d6000fd5b505050506040513d6000823e3d601f19601f820116820180604052506020811015610cef57600080fd5b810190808051640100000000811115610d0757600080fd5b82810190506020810184811115610d1d57600080fd5b8151856020820283011164010000000082111715610d3a57600080fd5b50509291905050509150600090505b600180549050811015610e5657600260018383815181101515610d6857fe5b90602001906020020151815481101515610d7e57fe5b9060005260206000209060020201908060018154018082558091505090600182039060005260206000209060020201600090919290919091506000820160009054906101000a900473ffffffffffffffffffffffffffffffffffffffff168160000160006101000a81548173ffffffffffffffffffffffffffffffffffffffff021916908373ffffffffffffffffffffffffffffffffffffffff16021790555060018201816001019080546001816001161561010002031660029004610e45929190610f7f565b505050508080600101915050610d49565b5050565b600080600090505b8351811015610ecf578273ffffffffffffffffffffffffffffffffffffffff168482815181101515610e9057fe5b906020019060200201516000015173ffffffffffffffffffffffffffffffffffffffff161415610ec257809150610ed4565b8080600101915050610e62565b835191505b5092915050565b828054600181600116156101000203166002900490600052602060002090601f016020900481019282601f10610f1c57805160ff1916838001178555610f4a565b82800160010185558215610f4a579182015b82811115610f49578251825591602001919060010190610f2e565b5b509050610f579190611006565b5090565b5080546000825560020290600052602060002090810190610f7c919061102b565b50565b828054600181600116156101000203166002900490600052602060002090601f016020900481019282601f10610fb85780548555610ff5565b82800160010185558215610ff557600052602060002091601f016020900482015b82811115610ff4578254825591600101919060010190610fd9565b5b5090506110029190611006565b5090565b61102891905b8082111561102457600081600090555060010161100c565b5090565b90565b61107e91905b8082111561107a57600080820160006101000a81549073ffffffffffffffffffffffffffffffffffffffff02191690556001820160006110719190611081565b50600201611031565b5090565b90565b50805460018160011615610100020316600290046000825580601f106110a757506110c6565b601f0160209004906000526020600020908101906110c59190611006565b5b505600a165627a7a72305820f17aca8ed705e9c951c5541609abdafe391bc28d7897c090193073cb9086a1910029",
  "source": "pragma solidity ^0.4.23;\nimport \"./IRandomPermutation.sol\";\n\ncontract Krutilka {\n\n  ////////////////////////////////////////////\n  // Participant's puclic functions\n  function Register(string yourName) public onlyStage(Stage.Register) \n  {\n    participants_.push(\n      Participant({\n        address_:msg.sender, \n        name_:yourName}));\n  }\n  function GetMyName() public view returns(string)\n  {\n    uint myIndex = FindIn(participants_,msg.sender);\n    require(myIndex < participants_.length);\n    return participants_[myIndex].name_;\n  }\n  function WhoToGift() public onlyStage(Stage.Gift) view returns(string) \n  {\n    require (orderedGifters_.length == participants_.length);\n    uint myIndex = FindIn(orderedGifters_,msg.sender);\n    require(myIndex < orderedGifters_.length);\n\n    uint who = myIndex+1;\n    if (who == orderedGifters_.length) who = 0;\n\n    return orderedGifters_[who].name_;\n  }\n  function GetCurrentStage() public view returns(string)\n  {\n    if (stage_ == Stage.Register)\n      return \"Register\";\n    if ( stage_ == Stage.Gift )\n      return \"Gift\";\n    return \"Error\";\n  }\n  function GetParticipantsCount() public view returns(uint)\n  {\n    return participants_.length;\n  }\n\n  /////////////////////////////////////////////\n  // Owner's public functions\n  constructor(\n    address randomPermutationContractAddress\n    ) public \n  {\n    owner = msg.sender;\n    stage_ = Stage.Register;\n    randomPermutationContract_ = IRandomPermutation(randomPermutationContractAddress);\n  }\n\n  function StartRegisterStage() public restricted \n  {\n    ClearParticipants();\n    stage_ = Stage.Register;\n  }\n\n  function StartKrutilka() public onlyStage(Stage.Register) restricted \n  {\n    require( participants_.length > 1 );\n    RandomReorder();\n    stage_ = Stage.Gift;\n  }\n\n  ////////////////////////////////////\n  // Internal\n\n  address public owner;\n  modifier restricted() {\n    if (msg.sender == owner) _;\n  }\n\n  enum Stage { Register, Gift }\n  Stage public stage_;\n  modifier onlyStage(Stage stage) {\n    if (stage == stage_) _;\n  }\n\n\n  ////////////\n  // data\n  struct Participant {\n    address address_;\n    string name_;\n  }\n  Participant[] private participants_;\n  Participant[] private orderedGifters_;\n\n  function ClearParticipants() internal {\n    delete participants_;\n    delete orderedGifters_;\n  }\n\n  function FindIn(Participant[] participants, address participantAddress) internal pure returns(uint) {\n    for(uint i = 0; i < participants.length; i++) {\n      if (participants[i].address_ == participantAddress) return i;\n    }\n    return participants.length;\n  }\n\n  IRandomPermutation randomPermutationContract_;\n\n  function RandomReorder() internal {\n    uint[] memory randomArray = randomPermutationContract_.Go(participants_.length);\n    for(uint i = 0; i < participants_.length; i++ )\n    {\n      orderedGifters_.push( participants_[randomArray[i]] );\n    }\n  }\n}\n",
  "sourcePath": "/home/ubuntu/git/krutilka/contracts/Krutilka.sol",
  "compiler": {
    "name": "solc",
    "version": "0.4.24+commit.e67f0147.Emscripten.clang"
  },
  "schemaVersion": "2.0.1",
  "updatedAt": "2018-12-12T15:05:49.421Z"
}