{
  "contractName": "Krutilka",
  "abi": [
    {
      "constant": true,
      "inputs": [],
      "name": "owner",
      "outputs": [
        {
          "name": "",
          "type": "address"
        }
      ],
      "payable": false,
      "stateMutability": "view",
      "type": "function"
    },
    {
      "constant": true,
      "inputs": [],
      "name": "stage_",
      "outputs": [
        {
          "name": "",
          "type": "uint8"
        }
      ],
      "payable": false,
      "stateMutability": "view",
      "type": "function"
    },
    {
      "inputs": [
        {
          "name": "randomPermutationContractAddress",
          "type": "address"
        }
      ],
      "payable": false,
      "stateMutability": "nonpayable",
      "type": "constructor"
    },
    {
      "constant": false,
      "inputs": [
        {
          "name": "yourName",
          "type": "string"
        }
      ],
      "name": "Register",
      "outputs": [],
      "payable": false,
      "stateMutability": "nonpayable",
      "type": "function"
    },
    {
      "constant": true,
      "inputs": [],
      "name": "WhoToGift",
      "outputs": [
        {
          "name": "",
          "type": "string"
        }
      ],
      "payable": false,
      "stateMutability": "view",
      "type": "function"
    },
    {
      "constant": true,
      "inputs": [],
      "name": "GetCurrentStage",
      "outputs": [
        {
          "name": "",
          "type": "string"
        }
      ],
      "payable": false,
      "stateMutability": "view",
      "type": "function"
    },
    {
      "constant": true,
      "inputs": [],
      "name": "GetParticipantsCount",
      "outputs": [
        {
          "name": "",
          "type": "uint256"
        }
      ],
      "payable": false,
      "stateMutability": "view",
      "type": "function"
    },
    {
      "constant": false,
      "inputs": [],
      "name": "StartRegisterStage",
      "outputs": [],
      "payable": false,
      "stateMutability": "nonpayable",
      "type": "function"
    },
    {
      "constant": false,
      "inputs": [],
      "name": "StartKrutilka",
      "outputs": [],
      "payable": false,
      "stateMutability": "nonpayable",
      "type": "function"
    }
  ],
  "bytecode": "0x608060405234801561001057600080fd5b50604051602080610f1083398101806040528101908080519060200190929190505050336000806101000a81548173ffffffffffffffffffffffffffffffffffffffff021916908373ffffffffffffffffffffffffffffffffffffffff16021790555060008060146101000a81548160ff0219169083600181111561009157fe5b021790555080600360006101000a81548173ffffffffffffffffffffffffffffffffffffffff021916908373ffffffffffffffffffffffffffffffffffffffff16021790555050610e29806100e76000396000f30060806040526004361061008e576000357c0100000000000000000000000000000000000000000000000000000000900463ffffffff16806313d349691461009357806337a776b9146100aa57806337a7cf34146100c157806340b2d3af146101515780638606d025146101ba5780638da5cb5b1461024a578063a9b4d3c7146102a1578063cc9bca5e146102da575b600080fd5b34801561009f57600080fd5b506100a8610305565b005b3480156100b657600080fd5b506100bf610388565b005b3480156100cd57600080fd5b506100d661044f565b6040518080602001828103825283818151815260200191508051906020019080838360005b838110156101165780820151818401526020810190506100fb565b50505050905090810190601f1680156101435780820380516001836020036101000a031916815260200191505b509250505060405180910390f35b34801561015d57600080fd5b506101b8600480360381019080803590602001908201803590602001908080601f01602080910402602001604051908101604052809392919081815260200183838082843782019150505050505091929192905050506106e3565b005b3480156101c657600080fd5b506101cf6107d5565b6040518080602001828103825283818151815260200191508051906020019080838360005b8381101561020f5780820151818401526020810190506101f4565b50505050905090810190601f16801561023c5780820380516001836020036101000a031916815260200191505b509250505060405180910390f35b34801561025657600080fd5b5061025f6108e8565b604051808273ffffffffffffffffffffffffffffffffffffffff1673ffffffffffffffffffffffffffffffffffffffff16815260200191505060405180910390f35b3480156102ad57600080fd5b506102b661090d565b604051808260018111156102c657fe5b60ff16815260200191505060405180910390f35b3480156102e657600080fd5b506102ef610920565b6040518082815260200191505060405180910390f35b6000809054906101000a900473ffffffffffffffffffffffffffffffffffffffff1673ffffffffffffffffffffffffffffffffffffffff163373ffffffffffffffffffffffffffffffffffffffff1614156103865761036261092d565b60008060146101000a81548160ff0219169083600181111561038057fe5b02179055505b565b60008060149054906101000a900460ff1660018111156103a457fe5b8160018111156103b057fe5b141561044c576000809054906101000a900473ffffffffffffffffffffffffffffffffffffffff1673ffffffffffffffffffffffffffffffffffffffff163373ffffffffffffffffffffffffffffffffffffffff16141561044b576001808054905011151561041e57600080fd5b61042661094b565b6001600060146101000a81548160ff0219169083600181111561044557fe5b02179055505b5b50565b60606000806001600060149054906101000a900460ff16600181111561047157fe5b81600181111561047d57fe5b14156106dd5760018054905060028054905014151561049b57600080fd5b6105f46002805480602002602001604051908101604052809291908181526020016000905b828210156105ea57838290600052602060002090600202016040805190810160405290816000820160009054906101000a900473ffffffffffffffffffffffffffffffffffffffff1673ffffffffffffffffffffffffffffffffffffffff1673ffffffffffffffffffffffffffffffffffffffff168152602001600182018054600181600116156101000203166002900480601f0160208091040260200160405190810160405280929190818152602001828054600181600116156101000203166002900480156105d25780601f106105a7576101008083540402835291602001916105d2565b820191906000526020600020905b8154815290600101906020018083116105b557829003601f168201915b505050505081525050815260200190600101906104c0565b5050505033610b8e565b92506002805490508310151561060957600080fd5b60018301915060028054905082141561062157600091505b60028281548110151561063057fe5b90600052602060002090600202016001018054600181600116156101000203166002900480601f0160208091040260200160405190810160405280929190818152602001828054600181600116156101000203166002900480156106d55780601f106106aa576101008083540402835291602001916106d5565b820191906000526020600020905b8154815290600101906020018083116106b857829003601f168201915b505050505093505b50505090565b60008060149054906101000a900460ff1660018111156106ff57fe5b81600181111561070b57fe5b14156107d157600160408051908101604052803373ffffffffffffffffffffffffffffffffffffffff168152602001848152509080600181540180825580915050906001820390600052602060002090600202016000909192909190915060008201518160000160006101000a81548173ffffffffffffffffffffffffffffffffffffffff021916908373ffffffffffffffffffffffffffffffffffffffff16021790555060208201518160010190805190602001906107cc929190610c0f565b505050505b5050565b6060600060018111156107e457fe5b600060149054906101000a900460ff1660018111156107ff57fe5b1415610842576040805190810160405280600881526020017f526567697374657200000000000000000000000000000000000000000000000081525090506108e5565b60018081111561084e57fe5b600060149054906101000a900460ff16600181111561086957fe5b14156108ac576040805190810160405280600481526020017f476966740000000000000000000000000000000000000000000000000000000081525090506108e5565b6040805190810160405280600581526020017f4572726f7200000000000000000000000000000000000000000000000000000081525090505b90565b6000809054906101000a900473ffffffffffffffffffffffffffffffffffffffff1681565b600060149054906101000a900460ff1681565b6000600180549050905090565b6001600061093b9190610c8f565b600260006109499190610c8f565b565b60606000600360009054906101000a900473ffffffffffffffffffffffffffffffffffffffff1673ffffffffffffffffffffffffffffffffffffffff1663a20f58536001805490506040518263ffffffff167c010000000000000000000000000000000000000000000000000000000002815260040180828152602001915050600060405180830381600087803b1580156109e557600080fd5b505af11580156109f9573d6000803e3d6000fd5b505050506040513d6000823e3d601f19601f820116820180604052506020811015610a2357600080fd5b810190808051640100000000811115610a3b57600080fd5b82810190506020810184811115610a5157600080fd5b8151856020820283011164010000000082111715610a6e57600080fd5b50509291905050509150600090505b600180549050811015610b8a57600260018383815181101515610a9c57fe5b90602001906020020151815481101515610ab257fe5b9060005260206000209060020201908060018154018082558091505090600182039060005260206000209060020201600090919290919091506000820160009054906101000a900473ffffffffffffffffffffffffffffffffffffffff168160000160006101000a81548173ffffffffffffffffffffffffffffffffffffffff021916908373ffffffffffffffffffffffffffffffffffffffff16021790555060018201816001019080546001816001161561010002031660029004610b79929190610cb3565b505050508080600101915050610a7d565b5050565b600080600090505b8351811015610c03578273ffffffffffffffffffffffffffffffffffffffff168482815181101515610bc457fe5b906020019060200201516000015173ffffffffffffffffffffffffffffffffffffffff161415610bf657809150610c08565b8080600101915050610b96565b835191505b5092915050565b828054600181600116156101000203166002900490600052602060002090601f016020900481019282601f10610c5057805160ff1916838001178555610c7e565b82800160010185558215610c7e579182015b82811115610c7d578251825591602001919060010190610c62565b5b509050610c8b9190610d3a565b5090565b5080546000825560020290600052602060002090810190610cb09190610d5f565b50565b828054600181600116156101000203166002900490600052602060002090601f016020900481019282601f10610cec5780548555610d29565b82800160010185558215610d2957600052602060002091601f016020900482015b82811115610d28578254825591600101919060010190610d0d565b5b509050610d369190610d3a565b5090565b610d5c91905b80821115610d58576000816000905550600101610d40565b5090565b90565b610db291905b80821115610dae57600080820160006101000a81549073ffffffffffffffffffffffffffffffffffffffff0219169055600182016000610da59190610db5565b50600201610d65565b5090565b90565b50805460018160011615610100020316600290046000825580601f10610ddb5750610dfa565b601f016020900490600052602060002090810190610df99190610d3a565b5b505600a165627a7a7230582074f083552cc1e964ad3a43bba9ec74bbc15972d232f31851949cdd995001eba60029",
  "source": "pragma solidity ^0.4.23;\nimport \"./IRandomPermutation.sol\";\n\ncontract Krutilka {\n\n  ////////////////////////////////////////////\n  // Participant's puclic functions\n  function Register(string yourName) public onlyStage(Stage.Register) \n  {\n    participants_.push(\n      Participant({\n        address_:msg.sender, \n        name_:yourName}));\n  }\n  function WhoToGift() public onlyStage(Stage.Gift) view returns(string) \n  {\n    require (orderedGifters_.length == participants_.length);\n    uint myIndex = FindIn(orderedGifters_,msg.sender);\n    require(myIndex < orderedGifters_.length);\n\n    uint who = myIndex+1;\n    if (who == orderedGifters_.length) who = 0;\n\n    return orderedGifters_[who].name_;\n  }\n  function GetCurrentStage() public view returns(string)\n  {\n    if (stage_ == Stage.Register)\n      return \"Register\";\n    if ( stage_ == Stage.Gift )\n      return \"Gift\";\n    return \"Error\";\n  }\n  function GetParticipantsCount() public view returns(uint)\n  {\n    return participants_.length;\n  }\n\n  /////////////////////////////////////////////\n  // Owner's public functions\n  constructor(\n    address randomPermutationContractAddress\n    ) public \n  {\n    owner = msg.sender;\n    stage_ = Stage.Register;\n    randomPermutationContract_ = IRandomPermutation(randomPermutationContractAddress);\n  }\n\n  function StartRegisterStage() public restricted \n  {\n    ClearParticipants();\n    stage_ = Stage.Register;\n  }\n\n  function StartKrutilka() public onlyStage(Stage.Register) restricted \n  {\n    require( participants_.length > 1 );\n    RandomReorder();\n    stage_ = Stage.Gift;\n  }\n\n  ////////////////////////////////////\n  // Internal\n\n  address public owner;\n  modifier restricted() {\n    if (msg.sender == owner) _;\n  }\n\n  enum Stage { Register, Gift }\n  Stage public stage_;\n  modifier onlyStage(Stage stage) {\n    if (stage == stage_) _;\n  }\n\n\n  ////////////\n  // data\n  struct Participant {\n    address address_;\n    string name_;\n  }\n  Participant[] private participants_;\n  Participant[] private orderedGifters_;\n\n  function ClearParticipants() internal {\n    delete participants_;\n    delete orderedGifters_;\n  }\n\n  function FindIn(Participant[] participants, address participantAddress) internal pure returns(uint) {\n    for(uint i = 0; i < participants.length; i++) {\n      if (participants[i].address_ == participantAddress) return i;\n    }\n    return participants.length;\n  }\n\n  IRandomPermutation randomPermutationContract_;\n\n  function RandomReorder() internal {\n    uint[] memory randomArray = randomPermutationContract_.Go(participants_.length);\n    for(uint i = 0; i < participants_.length; i++ )\n    {\n      orderedGifters_.push( participants_[randomArray[i]] );\n    }\n  }\n}\n",
  "sourcePath": "/home/ubuntu/git/krutilka/contracts/Krutilka.sol",
  "compiler": {
    "name": "solc",
    "version": "0.4.24+commit.e67f0147.Emscripten.clang"
  },
  "schemaVersion": "2.0.1",
  "updatedAt": "2018-12-11T08:19:40.531Z"
}