{
  "contractName": "RandomPermutation",
  "abi": [
    {
      "constant": true,
      "inputs": [],
      "name": "seed_",
      "outputs": [
        {
          "name": "",
          "type": "uint256"
        }
      ],
      "payable": false,
      "stateMutability": "view",
      "type": "function"
    },
    {
      "inputs": [],
      "payable": false,
      "stateMutability": "nonpayable",
      "type": "constructor"
    },
    {
      "constant": false,
      "inputs": [
        {
          "name": "n",
          "type": "uint256"
        }
      ],
      "name": "Go",
      "outputs": [
        {
          "name": "",
          "type": "uint256[]"
        }
      ],
      "payable": true,
      "stateMutability": "payable",
      "type": "function"
    },
    {
      "constant": true,
      "inputs": [],
      "name": "getSeed",
      "outputs": [
        {
          "name": "",
          "type": "uint256"
        }
      ],
      "payable": false,
      "stateMutability": "view",
      "type": "function"
    }
  ],
  "bytecode": "0x608060405234801561001057600080fd5b506060434201604051602001808281526020019150506040516020818303038152906040529050806040518082805190602001908083835b60208310151561006d5780518252602082019150602081019050602083039250610048565b6001836020036101000a0380198251168184511680821785525050505050509050019150506040518091039020600190046000819055505061034a806100b46000396000f300608060405260043610610057576000357c0100000000000000000000000000000000000000000000000000000000900463ffffffff16806339e7357c1461005c578063a20f585314610087578063da7db033146100fc575b600080fd5b34801561006857600080fd5b50610071610127565b6040518082815260200191505060405180910390f35b6100a560048036038101908080359060200190929190505050610130565b6040518080602001828103825283818151815260200191508051906020019060200280838360005b838110156100e85780820151818401526020810190506100cd565b505050509050019250505060405180910390f35b34801561010857600080fd5b50610111610261565b6040518082815260200191505060405180910390f35b60008054905090565b606080600080600080866040519080825280602002602001820160405280156101685781602001602082028038833980820191505090505b509450600287101561017c57849550610257565b600093505b868410156101b35783858581518110151561019857fe5b90602001906020020181815250508380600101945050610181565b6001870392505b600083101580156101ca57508683105b15610253576101d883610267565b915084838151811015156101e857fe5b906020019060200201519050848281518110151561020257fe5b90602001906020020151858481518110151561021a57fe5b906020019060200201818152505080858381518110151561023757fe5b90602001906020020181815250508280600190039350506101ba565b8495505b5050505050919050565b60005481565b60008060606001840160005481151561027c57fe5b06915043426000540101604051602001808281526020019150506040516020818303038152906040529050806040518082805190602001908083835b6020831015156102dd57805182526020820191506020810190506020830392506102b8565b6001836020036101000a03801982511681845116808217855250505050505090500191505060405180910390206001900460008190555081925050509190505600a165627a7a7230582056a81ce08c1eb6f13a313a36a3f807b4cc8d4cbe14c5a7a2b091629654a8bec50029",
  "source": "pragma solidity ^0.4.23;\nimport \"./IRandomPermutation.sol\";\n\ncontract RandomPermutation is IRandomPermutation\n{\n  function Go(uint n) public payable returns(uint[] memory)\n  {\n    uint[] memory result = new uint[](n);\n    if (n<2) return result;\n\n    for(uint i=0; i<n; i++)\n    {\n      result[i]=i;\n    }\n    \n    for(uint k=n-1; k>=0 && k<n; k--)\n    {\n      uint j = random(k);\n      uint t = result[k];\n      result[k] = result[j];\n      result[j] = t;   \n    }\n    return result;\n  }\n\n  uint public seed_;\n\n  function getSeed() public view returns(uint)\n  {\n    return seed_;\n  }\n\n  constructor() public\n  {\n    bytes memory t1 = abi.encodePacked(block.timestamp+block.number);\n    seed_ = uint( keccak256( t1 ));\n  }\n  \n  function random(uint maxValue) internal returns(uint)\n  {\n    uint value = seed_ % (maxValue+1);\n    bytes memory t1 = abi.encodePacked(seed_ + block.timestamp + block.number);\n    seed_ = uint( keccak256( t1 ));\n    return value;\n  }\n}\n",
  "sourcePath": "/home/ubuntu/git/krutilka/contracts/RandomPermutation.sol",
  "compiler": {
    "name": "solc",
    "version": "0.4.24+commit.e67f0147.Emscripten.clang"
  },
  "schemaVersion": "2.0.1",
  "updatedAt": "2018-12-12T15:05:49.387Z"
}