{
  "contractName": "RandomPermutation",
  "abi": [
    {
      "constant": false,
      "inputs": [
        {
          "name": "n",
          "type": "uint256"
        }
      ],
      "name": "Go",
      "outputs": [
        {
          "name": "",
          "type": "uint256[]"
        }
      ],
      "payable": true,
      "stateMutability": "payable",
      "type": "function"
    }
  ],
  "bytecode": "0x608060405234801561001057600080fd5b5061015f806100206000396000f300608060405260043610610041576000357c0100000000000000000000000000000000000000000000000000000000900463ffffffff168063a20f585314610046575b600080fd5b610064600480360381019080803590602001909291905050506100bb565b6040518080602001828103825283818151815260200191508051906020019060200280838360005b838110156100a757808201518184015260208101905061008c565b505050509050019250505060405180910390f35b6060806000836040519080825280602002602001820160405280156100ef5781602001602082028038833980820191505090505b509150600090505b838110156101295780828281518110151561010e57fe5b906020019060200201818152505080806001019150506100f7565b81925050509190505600a165627a7a7230582038a8f2d78987b8e36a58f0700139c52ba3f716c7c80c4f07b0a2ac471a3bee450029",
  "source": "pragma solidity ^0.4.23;\nimport \"./IRandomPermutation.sol\";\n\ncontract RandomPermutation is IRandomPermutation\n{\n  function Go(uint n) public payable returns(uint[] memory)\n  {\n    uint[] memory result = new uint[](n);\n    for(uint i=0; i<n; i++)\n    {\n      result[i]=i;\n    }\n    return result;\n  }\n}",
  "sourcePath": "/home/ubuntu/git/krutilka/contracts/RandomPermutation.sol",
  "compiler": {
    "name": "solc",
    "version": "0.4.24+commit.e67f0147.Emscripten.clang"
  },
  "schemaVersion": "2.0.1",
  "updatedAt": "2018-12-11T08:19:40.496Z"
}